:100000000C9477000C9496000C9496000C94960037
:100010000C9496000C9496000C9496000C94960008
:100020000C9496000C9496000C9496000C949600F8
:100030000C9496000C9496000C9496000C949600E8
:100040000C9496000C9496000C9496000C949600D8
:100050000C9496000C9496000C9496000C949600C8
:100060000C9496000C9496000C9496000C949600B8
:100070000C9496000C9496000C9496000C949600A8
:100080000C9496000C9496000C9496000A3F3F3F07
:10009000000D0A696E7075743D25752C20657865B4
:1000A000637574653D25752C206F75747075743D8E
:1000B00025752028783634636C6B29000D0A2534A9
:1000C000753A25357520000D0A2534753A253664B4
:1000D00020000D0A3E000D0A4646542073616D70E3
:1000E0006C652070726F6772616D0D0A00001124DB
:1000F0001FBECFEFD0E1DEBFCDBF11E0A0E0B1E089
:10010000E0E1FBE000E00BBF02C007900D92A030E1
:10011000B107D9F714E0A0E0B1E001C01D92A03909
:10012000B107E1F70E94AE000C9487050C94000023
:10013000FC0187E687B920E030E046EF46B9349B02
:10014000FECF84B195B180509048819391932F5FF9
:100150003F4F2617370791F716B80895CFEFD0E134
:10016000DEBFCDBF82E082B983E08EBD86ED90E038
:100170000E946C0482ED90E00E946C0460E180E0DB
:1001800093E00E94F90480910003833709F453C07F
:10019000873719F0882371F3B8C060E870E080E118
:1001A00093E00E949800CC24DD2420E1A22E23E0DD
:1001B000B22ED501ED90FC90FF92EF92DF92CF929C
:1001C00087EC90E09F938F930E94A604002711274D
:1001D00080E090E8A0E0B0E0E80EF91E0A1F1B1FC7
:1001E000C801B70120E034E040E050E00E944A0539
:1001F0007901C0E0D0E0ADB7BEB716960FB6F8945F
:10020000BEBF0FBEADBF04C080E20E945C04219659
:10021000CE15DF05C8F38AE20E945C040894C11C75
:10022000D11CE2E0F0E0AE0EBF1EF0E8CF16D10424
:1002300009F4A0CFBECF60E870E080E193E00E94B7
:1002400098001DBC1CBC60E071E080E193E00E945E
:10025000C8026CB47DB41DBC1CBC80E091E00E945F
:10026000F7028CB49DB41DBC1CBC60E174E080E05E
:1002700091E00E94C103ACB4BDB4EE24FF2490E130
:10028000C92E94E0D92ED6010D911C911F930F9386
:10029000FF92EF928CEB90E09F938F930E94A604C5
:1002A000012F11270695C0E0D0E0EDB7FEB73696D6
:1002B0000FB6F894FEBF0FBEEDBF04C08AE20E94E5
:1002C0005C042196C017D107C8F30894E11CF11C07
:1002D00082E090E0C80ED91E90E4E916F10499F688
:1002E000BF92AF929F928F927F926F9281E990E03E
:1002F0009F938F930E94A604ADB7BEB718960FB612
:10030000F894BEBF0FBEADBF35CF8CE890E030CFC4
:100310003D0A4F0A850AE00A5E0B010CC60CAE0DC1
:10032000B80EE40F31119D122914D3159A177D19B7
:100330007C1B931DC41F0B226824D9265C29F12B3A
:10034000962E48310634CF36A1397A3C583F3A428E
:100350001E450148E34AC14D9A506C533556F45836
:10036000A65B4A5EDF606363D4653168786AA86C17
:10037000C06EBE70A172687412769E770B79577A40
:10038000837B8D7C757D3B7EDD7E5B7FB67FEC7FE6
:10039000FE7FEC7FB67F5B7FDD7E3B7E757D8D7C57
:1003A000837B577A0B799E7712766874A172BE7040
:1003B000C06EA86C786A3168D4656363DF604A5E9A
:1003C000A65BF45835566C539A50C14DE34A014828
:1003D0001E453A42583F7A3CA139CF36063448315F
:1003E000962EF12B5C29D92668240B22C41F931D5D
:1003F0007C1B7E199A17D31529149D123111E40F15
:10040000B80EAE0DC60C010C5E0BE00A850A4F0A51
:10041000FF7F0000D77F4706617F8B0C9C7EC71251
:10042000897DF818297C191F7C7A272583781E2B53
:100430004076FB30B573B936E170563CC96DCD419D
:100440006C6A1C47CE663F4CF1623351D65EF45560
:10045000815A815AF455D65E3351F1623F4CCE66D3
:100460001C476C6ACD41C96D563CE170B936B57315
:10047000FB3040761E2B837827257C7A191F297C38
:10048000F818897DC7129C7E8B0C617F4706D77F49
:100490000000FE7FB9F9D77F75F3617F39ED9C7E4F
:1004A00008E7897DE7E0297CD9DA7C7AE2D4837891
:1004B00005CF407647C9B573AAC3E17033BEC96D95
:1004C000E4B86C6AC1B3CE66CDAEF1620CAAD65E5A
:1004D0007FA5815A2AA1F5550F9D335132993F4C82
:1004E00094951C473792CD411F8F563C4C8CB936A2
:1004F000C089FB307D871E2B84852725D883191F53
:100500007782F8186481C7129F808B0C2980470678
:10051000000000018000800140004001C000C001D7
:1005200020002001A000A00160006001E000E001C7
:10053000100010019000900150005001D000D00137
:1005400030003001B000B00170007001F000F00127
:10055000080008018800880148004801C800C80157
:1005600028002801A800A80168006801E800E80147
:10057000180018019800980158005801D800D801B7
:1005800038003801B800B80178007801F800F801A7
:100590003F922F921F930F93DF93CF93DC01EB01D8
:1005A0009927E0E1F3E000E810E0259135914D91C5
:1005B0005D91B503B0012C031001691FBC03790BD9
:1005C000300C611D791FDA03790B300C611D791F26
:1005D00069937993699379930150104031F7CF91E2
:1005E000DF910F911F912F903F90112408953F921A
:1005F0002F925F924F927F926F929F928F92BF92B3
:10060000AF92DF92CF92FF92EF921F930F93DF93FF
:10061000CF93FC0181E090E0A0E4B0E004E0809F93
:100620006001909FD00C7C019F938F93EF01A09F5E
:10063000C00DD11DB09FD00DFF93EF93BB24AA2412
:1006400099270081118115950795688179817595A4
:100650006795A801061B170B460F571F419351932F
:1006600020813181359527956A817B8175956795C4
:10067000A901261B370B460F571F419351930F01BA
:10068000E0E1F4E0EA0DFB1D45915591659175910E
:10069000F001950320010C031001491E9C03590A27
:1006A000300C411C591ED803590A300C411C591EEC
:1006B000B70340012E033001891EBE03990A700C56
:1006C000811C991EFA03990A700C811C991E260C34
:1006D000371C481C591C49925992B50320012C0320
:1006E0001001491EBC03590A300C411C591EDA0383
:1006F000590A300C411C591E970340010E0330016A
:10070000891E9E03990A700C811C991EF803990A90
:10071000700C811C991E2618370848085908499200
:100720005992AC0CBD1CB0FE8CCF04E0A09FC00D54
:10073000D11DE00DF11DB09FD00DF00D81E0E81A44
:10074000F90A09F07BCFEF91FF918F919F91880F6C
:10075000991FB695A795109609F060CFCF91DF91BC
:100760000F911F91EF90FF90CF90DF90AF90BF90CF
:100770008F909F906F907F904F905F902F903F90C1
:1007800008953F922F925F924F927F926F929F9225
:100790008F92BF92AF921F930F93DF93CF935C0121
:1007A000EB01E0E1F5E0992700E410E0A591B591B7
:1007B000AA0DBB1D2D913D914D915D91B30320017B
:1007C0002A031001491EBA03590A300C411C591E54
:1007D000BA03590A300C411C591ED50340014C0381
:1007E0003001891EDC03990A700C811C991EDC0300
:1007F000990A700C811C991E260C371C481C591C28
:10080000662477248824992421E030E04427552762
:1008100070E1220C331C441C551C661C771C881C80
:10082000991C220C331C441C551C661C771C881C0C
:10083000991C2AF4620E731E841E951E04C0621A4F
:10084000730A840A950A220F331F441F287F2560EC
:1008500097FC22507A95E9F6469537952795469567
:1008600037952795299339930150104009F09ECF71
:10087000CF91DF910F911F91AF90BF908F909F907C
:100880006F907F904F905F902F903F90112408952C
:10089000AC019927D703F0014E03D001E91FDE0315
:1008A000F90BB00DE11DF91FFC03F90BB00DE11DB3
:1008B000F91FCF01112408950FB680959AE0F8949E
:1008C00079E87A95F1F708F0C69808F4C69A869503
:1008D0009A95B1F70FBE0895FC018591882311F018
:1008E000EBDFFBCF08953327E0E2F0E267FF08C0BB
:1008F000619597FF05C0EDE280959095811D911D52
:1009000047FF02C04195F0E350E17727880F991F18
:10091000771F761710F0761B83955A95B9F77A30C2
:1009200008F0795F705D7F9333958517950761F7C0
:10093000ED3211F4EF933395341718F4FF93339598
:10094000FBCF8F91B9DF3A95E1F70895ADB7BEB708
:100950001396ED91FD918591803021F0853219F04B
:10096000ABDFF9CF089540E0E89485918532C1F37B
:10097000803311F4689485918A3348F4805390F35E
:10098000440F042E440F440F400D480FF4CF782F2E
:100990008D919D91733621F37337A1F0783560E125
:1009A00049F075376AE031F0743666EF19F0723647
:1009B00062E0C1F60EF44195FF93EF9394DFEF915F
:1009C000FF91C9CFFF93EF9387DFF9CF0FB680E890
:1009D000F894B599FECFB59BFECF95E49A95F1F7C3
:1009E0009AE89A95F1F78695B59B8068C8F70FBE8F
:1009F0000895FC0151E0EADF8D3079F0883041F054
:100A00005617C8F78032B8F38193539555DFF3CF6B
:100A1000513089F35A953197F9CF4EDF10820895FE
:100A2000FC01A191B19122273327E8948C918D325A
:100A300011F468941FC08032F8F029F41196F6CFB3
:100A40008C918132D8F0813608F080528053A0F02A
:100A50008A3018F0813180F08750841768F491E172
:100A6000551B08F4540F5795379527959A95C9F754
:100A7000280F311D1196E4CF882706C081E026F4A7
:100A800020953095211D311DB293A293FB01219336
:100A90003193089597FB092E05260ED057FD04D0FB
:100AA00014D00AD0001C38F450954095309521950B
:100AB0003F4F4F4F5F4F0895F6F790958095709593
:100AC00061957F4F8F4F9F4F0895A1E21A2EAA1B69
:100AD000BB1BFD010DC0AA1FBB1FEE1FFF1FA217EE
:100AE000B307E407F50720F0A21BB30BE40BF50BEB
:100AF000661F771F881F991F1A9469F76095709574
:100B0000809590959B01AC01BD01CF010895FFCF69
:00000001FF
